{
  "transactions": [
    {
      "hash": "0xf44e07964c96526f1d48a1922520155239be5d3a5d3a2c5c1780939c85a13050",
      "transactionType": "CREATE",
      "contractName": "AABasic",
      "contractAddress": "0x4ddda3C7fa1e9990fD3F3b35C30cBd859920aB44",
      "function": null,
      "arguments": null,
      "transaction": {
        "type": "0x02",
        "from": "0xea5963c83b6e38d766ecf506f39a82e723adc709",
        "gas": "0x8f018",
        "value": "0x0",
        "data": "0x608060405234801561001057600080fd5b5061001a3361003c565b336000908152600160208190526040909120805460ff1916909117905561008c565b600080546001600160a01b038381166001600160a01b0319831681178455604051919092169283917f8be0079c531659141344cd1fd0a4f28419497f9722a3daafe3b4186f6b6457e09190a35050565b6106538061009b6000396000f3fe6080604052600436106100745760003560e01c80639b19251a1161004e5780639b19251a146100f6578063b61d27f614610136578063e43252d714610156578063f2fde38b1461017657600080fd5b80633a871cdd14610080578063715018a6146100b75780638da5cb5b146100ce57600080fd5b3661007b57005b600080fd5b34801561008c57600080fd5b506100a461009b366004610470565b60009392505050565b6040519081526020015b60405180910390f35b3480156100c357600080fd5b506100cc610196565b005b3480156100da57600080fd5b506000546040516001600160a01b0390911681526020016100ae565b34801561010257600080fd5b506101266101113660046104e0565b60016020526000908152604090205460ff1681565b60405190151581526020016100ae565b34801561014257600080fd5b506100cc610151366004610502565b6101aa565b34801561016257600080fd5b506100cc6101713660046104e0565b6102d4565b34801561018257600080fd5b506100cc6101913660046104e0565b61034d565b61019e6103c6565b6101a86000610420565b565b3360009081526001602052604090205460ff166102015760405162461bcd60e51b815260206004820152601060248201526f1b9bdd081a5b881dda1a5d195b1a5cdd60821b60448201526064015b60405180910390fd5b836001600160a01b03167fcaf938de11c367272220bfd1d2baa99ca46665e7bc4d85f00adb51b90fe1fa9f84848460405161023e93929190610589565b60405180910390a2600080856001600160a01b03168585856040516102649291906105bf565b60006040518083038185875af1925050503d80600081146102a1576040519150601f19603f3d011682016040523d82523d6000602084013e6102a6565b606091505b50915091508181906102cb5760405162461bcd60e51b81526004016101f891906105cf565b50505050505050565b3360009081526001602052604090205460ff166103265760405162461bcd60e51b815260206004820152601060248201526f1b9bdd081a5b881dda1a5d195b1a5cdd60821b60448201526064016101f8565b6001600160a01b03166000908152600160208190526040909120805460ff19169091179055565b6103556103c6565b6001600160a01b0381166103ba5760405162461bcd60e51b815260206004820152602660248201527f4f776e61626c653a206e6577206f776e657220697320746865207a65726f206160448201526564647265737360d01b60648201526084016101f8565b6103c381610420565b50565b6000546001600160a01b031633146101a85760405162461bcd60e51b815260206004820181905260248201527f4f776e61626c653a2063616c6c6572206973206e6f7420746865206f776e657260448201526064016101f8565b600080546001600160a01b038381166001600160a01b0319831681178455604051919092169283917f8be0079c531659141344cd1fd0a4f28419497f9722a3daafe3b4186f6b6457e09190a35050565b60008060006060848603121561048557600080fd5b833567ffffffffffffffff81111561049c57600080fd5b840161016081870312156104af57600080fd5b95602085013595506040909401359392505050565b80356001600160a01b03811681146104db57600080fd5b919050565b6000602082840312156104f257600080fd5b6104fb826104c4565b9392505050565b6000806000806060858703121561051857600080fd5b610521856104c4565b935060208501359250604085013567ffffffffffffffff8082111561054557600080fd5b818701915087601f83011261055957600080fd5b81358181111561056857600080fd5b88602082850101111561057a57600080fd5b95989497505060200194505050565b83815260406020820152816040820152818360608301376000818301606090810191909152601f909201601f1916010192915050565b8183823760009101908152919050565b600060208083528351808285015260005b818110156105fc578581018301518582016040015282016105e0565b506000604082860101526040601f19601f830116850101925050509291505056fea2646970667358221220058a7809a353fcec3c5a8ee979b7e8918ca5d4a6b8fc7ad8b96988941033ac2264736f6c63430008130033",
        "nonce": "0x21",
        "accessList": []
      },
      "additionalContracts": [],
      "isFixedGasLimit": false
    },
    {
      "hash": "0x67cd86bc3c6c1ac6ed333417ef6935b6f702d0184a934b06d0fbf1928749b5e2",
      "transactionType": "CALL",
      "contractName": "AABasic",
      "contractAddress": "0x4ddda3C7fa1e9990fD3F3b35C30cBd859920aB44",
      "function": "addToWhitelist(address)",
      "arguments": [
        "0xeA5963C83b6E38d766EcF506f39A82E723Adc709"
      ],
      "transaction": {
        "type": "0x02",
        "from": "0xea5963c83b6e38d766ecf506f39a82e723adc709",
        "to": "0x4ddda3c7fa1e9990fd3f3b35c30cbd859920ab44",
        "gas": "0x8ac2",
        "value": "0x0",
        "data": "0xe43252d7000000000000000000000000ea5963c83b6e38d766ecf506f39a82e723adc709",
        "nonce": "0x22",
        "accessList": []
      },
      "additionalContracts": [],
      "isFixedGasLimit": false
    },
    {
      "hash": "0x3c7f4b8048009531ff0b01b940c1a39ab3afde1633be4062ffb3bd05acbda456",
      "transactionType": "CALL",
      "contractName": "AABasic",
      "contractAddress": "0x4ddda3C7fa1e9990fD3F3b35C30cBd859920aB44",
      "function": "addToWhitelist(address)",
      "arguments": [
        "0xD470055c6189B921c4d44b3d277Ad868F79C0F75"
      ],
      "transaction": {
        "type": "0x02",
        "from": "0xea5963c83b6e38d766ecf506f39a82e723adc709",
        "to": "0x4ddda3c7fa1e9990fd3f3b35c30cbd859920ab44",
        "gas": "0xf935",
        "value": "0x0",
        "data": "0xe43252d7000000000000000000000000d470055c6189b921c4d44b3d277ad868f79c0f75",
        "nonce": "0x23",
        "accessList": []
      },
      "additionalContracts": [],
      "isFixedGasLimit": false
    },
    {
      "hash": "0xd5956eb9644802e64e7956bd8d7643537120b775e80732cabd358e919d1b369a",
      "transactionType": "CALL",
      "contractName": "AABasic",
      "contractAddress": "0x4ddda3C7fa1e9990fD3F3b35C30cBd859920aB44",
      "function": "addToWhitelist(address)",
      "arguments": [
        "0x5FF137D4b0FDCD49DcA30c7CF57E578a026d2789"
      ],
      "transaction": {
        "type": "0x02",
        "from": "0xea5963c83b6e38d766ecf506f39a82e723adc709",
        "to": "0x4ddda3c7fa1e9990fd3f3b35c30cbd859920ab44",
        "gas": "0xf935",
        "value": "0x0",
        "data": "0xe43252d70000000000000000000000005ff137d4b0fdcd49dca30c7cf57e578a026d2789",
        "nonce": "0x24",
        "accessList": []
      },
      "additionalContracts": [],
      "isFixedGasLimit": false
    }
  ],
  "receipts": [
    {
      "transactionHash": "0xf44e07964c96526f1d48a1922520155239be5d3a5d3a2c5c1780939c85a13050",
      "transactionIndex": "0x3b",
      "blockHash": "0x95cec9a77135abd3bbdfe09050d03ff040af06025e014a2ee2cd256ce22ef65f",
      "blockNumber": "0x2b47b0c",
      "from": "0xeA5963C83b6E38d766EcF506f39A82E723Adc709",
      "to": null,
      "cumulativeGasUsed": "0xc6e4aa",
      "gasUsed": "0x6e013",
      "contractAddress": "0x4ddda3C7fa1e9990fD3F3b35C30cBd859920aB44",
      "logs": [
        {
          "address": "0x4ddda3C7fa1e9990fD3F3b35C30cBd859920aB44",
          "topics": [
            "0x8be0079c531659141344cd1fd0a4f28419497f9722a3daafe3b4186f6b6457e0",
            "0x0000000000000000000000000000000000000000000000000000000000000000",
            "0x000000000000000000000000ea5963c83b6e38d766ecf506f39a82e723adc709"
          ],
          "data": "0x",
          "blockHash": "0x95cec9a77135abd3bbdfe09050d03ff040af06025e014a2ee2cd256ce22ef65f",
          "blockNumber": "0x2b47b0c",
          "transactionHash": "0xf44e07964c96526f1d48a1922520155239be5d3a5d3a2c5c1780939c85a13050",
          "transactionIndex": "0x3b",
          "logIndex": "0x10a",
          "removed": false
        },
        {
          "address": "0x0000000000000000000000000000000000001010",
          "topics": [
            "0x4dfe1bbbcf077ddc3e01291eea2d5c70c2b422b415d95645b9adcfd678cb1d63",
            "0x0000000000000000000000000000000000000000000000000000000000001010",
            "0x000000000000000000000000ea5963c83b6e38d766ecf506f39a82e723adc709",
            "0x000000000000000000000000ec20607aa654d823dd01beb8780a44863c57ed07"
          ],
          "data": "0x000000000000000000000000000000000000000000000000002d33f620a3e8d10000000000000000000000000000000000000000000000002833655b0e80ae0300000000000000000000000000000000000000000000014519915e5c18f40a4d00000000000000000000000000000000000000000000000028063164eddcc53200000000000000000000000000000000000000000000014519be92523997f31e",
          "blockHash": "0x95cec9a77135abd3bbdfe09050d03ff040af06025e014a2ee2cd256ce22ef65f",
          "blockNumber": "0x2b47b0c",
          "transactionHash": "0xf44e07964c96526f1d48a1922520155239be5d3a5d3a2c5c1780939c85a13050",
          "transactionIndex": "0x3b",
          "logIndex": "0x10b",
          "removed": false
        }
      ],
      "status": "0x1",
      "logsBloom": "0x00000000000000000000000400000000000000000000100000800000000000000000000000000000000000000000000000008000000000000000000000000000000000000000000000000000000000800001000000000000000100000000000000000000020000000002000000000800000000000000000080800000000000400000000080000000000000000000000040000000000000000000004000000000200000000000000000000000000000000000000000000000000000000000004000000000000000000001000000000080000000000000000000100000000020000000000002000000000000000000000000000000000000000000000000100000",
      "type": "0x2",
      "effectiveGasPrice": "0x165a0bc000"
    },
    {
      "transactionHash": "0x67cd86bc3c6c1ac6ed333417ef6935b6f702d0184a934b06d0fbf1928749b5e2",
      "transactionIndex": "0x3c",
      "blockHash": "0x95cec9a77135abd3bbdfe09050d03ff040af06025e014a2ee2cd256ce22ef65f",
      "blockNumber": "0x2b47b0c",
      "from": "0xeA5963C83b6E38d766EcF506f39A82E723Adc709",
      "to": "0x4ddda3C7fa1e9990fD3F3b35C30cBd859920aB44",
      "cumulativeGasUsed": "0xc7438b",
      "gasUsed": "0x5ee1",
      "contractAddress": null,
      "logs": [
        {
          "address": "0x0000000000000000000000000000000000001010",
          "topics": [
            "0x4dfe1bbbcf077ddc3e01291eea2d5c70c2b422b415d95645b9adcfd678cb1d63",
            "0x0000000000000000000000000000000000000000000000000000000000001010",
            "0x000000000000000000000000ea5963c83b6e38d766ecf506f39a82e723adc709",
            "0x000000000000000000000000ec20607aa654d823dd01beb8780a44863c57ed07"
          ],
          "data": "0x00000000000000000000000000000000000000000000000000026fcce898abab0000000000000000000000000000000000000000000000002799b8a197a16e0300000000000000000000000000000000000000000000014519be92523997f31e000000000000000000000000000000000000000000000000279748d4af08c25800000000000000000000000000000000000000000000014519c1021f22309ec9",
          "blockHash": "0x95cec9a77135abd3bbdfe09050d03ff040af06025e014a2ee2cd256ce22ef65f",
          "blockNumber": "0x2b47b0c",
          "transactionHash": "0x67cd86bc3c6c1ac6ed333417ef6935b6f702d0184a934b06d0fbf1928749b5e2",
          "transactionIndex": "0x3c",
          "logIndex": "0x10c",
          "removed": false
        }
      ],
      "status": "0x1",
      "logsBloom": "0x00000000000000000000000400000000000000000000000000000000000000000000000000000000000000000000000000008000000000000000000000000000000000000000000000000000000000800000000000000000000100000000000000000000000000000002000000000000000000000000000080000000000000000000000080000000000000000000000040000000000000000000000000000000200000000000000000000000000000000000000000000000000000000000004000000000000000000001000000000080000000000000000000100000000000000000000002000000000000000000000000000000000000000000000000100000",
      "type": "0x2",
      "effectiveGasPrice": "0x165a0bc000"
    },
    {
      "transactionHash": "0x3c7f4b8048009531ff0b01b940c1a39ab3afde1633be4062ffb3bd05acbda456",
      "transactionIndex": "0x3d",
      "blockHash": "0x95cec9a77135abd3bbdfe09050d03ff040af06025e014a2ee2cd256ce22ef65f",
      "blockNumber": "0x2b47b0c",
      "from": "0xeA5963C83b6E38d766EcF506f39A82E723Adc709",
      "to": "0x4ddda3C7fa1e9990fD3F3b35C30cBd859920aB44",
      "cumulativeGasUsed": "0xc7f7f8",
      "gasUsed": "0xb46d",
      "contractAddress": null,
      "logs": [
        {
          "address": "0x0000000000000000000000000000000000001010",
          "topics": [
            "0x4dfe1bbbcf077ddc3e01291eea2d5c70c2b422b415d95645b9adcfd678cb1d63",
            "0x0000000000000000000000000000000000000000000000000000000000001010",
            "0x000000000000000000000000ea5963c83b6e38d766ecf506f39a82e723adc709",
            "0x000000000000000000000000ec20607aa654d823dd01beb8780a44863c57ed07"
          ],
          "data": "0x0000000000000000000000000000000000000000000000000004a23edb5b78af00000000000000000000000000000000000000000000000027916fec22cdae0300000000000000000000000000000000000000000000014519c1021f22309ec9000000000000000000000000000000000000000000000000278ccdad4772355400000000000000000000000000000000000000000000014519c5a45dfd8c1778",
          "blockHash": "0x95cec9a77135abd3bbdfe09050d03ff040af06025e014a2ee2cd256ce22ef65f",
          "blockNumber": "0x2b47b0c",
          "transactionHash": "0x3c7f4b8048009531ff0b01b940c1a39ab3afde1633be4062ffb3bd05acbda456",
          "transactionIndex": "0x3d",
          "logIndex": "0x10d",
          "removed": false
        }
      ],
      "status": "0x1",
      "logsBloom": "0x00000000000000000000000400000000000000000000000000000000000000000000000000000000000000000000000000008000000000000000000000000000000000000000000000000000000000800000000000000000000100000000000000000000000000000002000000000000000000000000000080000000000000000000000080000000000000000000000040000000000000000000000000000000200000000000000000000000000000000000000000000000000000000000004000000000000000000001000000000080000000000000000000100000000000000000000002000000000000000000000000000000000000000000000000100000",
      "type": "0x2",
      "effectiveGasPrice": "0x165a0bc000"
    },
    {
      "transactionHash": "0xd5956eb9644802e64e7956bd8d7643537120b775e80732cabd358e919d1b369a",
      "transactionIndex": "0x3e",
      "blockHash": "0x95cec9a77135abd3bbdfe09050d03ff040af06025e014a2ee2cd256ce22ef65f",
      "blockNumber": "0x2b47b0c",
      "from": "0xeA5963C83b6E38d766EcF506f39A82E723Adc709",
      "to": "0x4ddda3C7fa1e9990fD3F3b35C30cBd859920aB44",
      "cumulativeGasUsed": "0xc8ac65",
      "gasUsed": "0xb46d",
      "contractAddress": null,
      "logs": [
        {
          "address": "0x0000000000000000000000000000000000001010",
          "topics": [
            "0x4dfe1bbbcf077ddc3e01291eea2d5c70c2b422b415d95645b9adcfd678cb1d63",
            "0x0000000000000000000000000000000000000000000000000000000000001010",
            "0x000000000000000000000000ea5963c83b6e38d766ecf506f39a82e723adc709",
            "0x000000000000000000000000ec20607aa654d823dd01beb8780a44863c57ed07"
          ],
          "data": "0x0000000000000000000000000000000000000000000000000004a23edb5b78af0000000000000000000000000000000000000000000000002781af1788ccee0300000000000000000000000000000000000000000000014519c5a45dfd8c1778000000000000000000000000000000000000000000000000277d0cd8ad71755400000000000000000000000000000000000000000000014519ca469cd8e79027",
          "blockHash": "0x95cec9a77135abd3bbdfe09050d03ff040af06025e014a2ee2cd256ce22ef65f",
          "blockNumber": "0x2b47b0c",
          "transactionHash": "0xd5956eb9644802e64e7956bd8d7643537120b775e80732cabd358e919d1b369a",
          "transactionIndex": "0x3e",
          "logIndex": "0x10e",
          "removed": false
        }
      ],
      "status": "0x1",
      "logsBloom": "0x00000000000000000000000400000000000000000000000000000000000000000000000000000000000000000000000000008000000000000000000000000000000000000000000000000000000000800000000000000000000100000000000000000000000000000002000000000000000000000000000080000000000000000000000080000000000000000000000040000000000000000000000000000000200000000000000000000000000000000000000000000000000000000000004000000000000000000001000000000080000000000000000000100000000000000000000002000000000000000000000000000000000000000000000000100000",
      "type": "0x2",
      "effectiveGasPrice": "0x165a0bc000"
    }
  ],
  "libraries": [],
  "pending": [],
  "returns": {},
  "timestamp": 1690029158,
  "chain": 137,
  "multi": false,
  "commit": "9680d29"
}