{
  "transactions": [
    {
      "hash": "0xe7d6d076834432948d56b7233919d54193dff5a2e7511a486d0a0a216da3409e",
      "transactionType": "CREATE",
      "contractName": "AABasic",
      "contractAddress": "0x39Fa0171672765Abf9A645912dd31f76bD58f00A",
      "function": null,
      "arguments": null,
      "transaction": {
        "type": "0x02",
        "from": "0xea5963c83b6e38d766ecf506f39a82e723adc709",
        "gas": "0x8f028",
        "value": "0x0",
        "data": "0x608060405234801561001057600080fd5b5061001a3361003c565b336000908152600160208190526040909120805460ff1916909117905561008c565b600080546001600160a01b038381166001600160a01b0319831681178455604051919092169283917f8be0079c531659141344cd1fd0a4f28419497f9722a3daafe3b4186f6b6457e09190a35050565b6106538061009b6000396000f3fe6080604052600436106100745760003560e01c80639b19251a1161004e5780639b19251a146100f6578063b61d27f614610136578063e43252d714610156578063f2fde38b1461017657600080fd5b80633a871cdd14610080578063715018a6146100b75780638da5cb5b146100ce57600080fd5b3661007b57005b600080fd5b34801561008c57600080fd5b506100a461009b366004610470565b60019392505050565b6040519081526020015b60405180910390f35b3480156100c357600080fd5b506100cc610196565b005b3480156100da57600080fd5b506000546040516001600160a01b0390911681526020016100ae565b34801561010257600080fd5b506101266101113660046104e0565b60016020526000908152604090205460ff1681565b60405190151581526020016100ae565b34801561014257600080fd5b506100cc610151366004610502565b6101aa565b34801561016257600080fd5b506100cc6101713660046104e0565b6102d4565b34801561018257600080fd5b506100cc6101913660046104e0565b61034d565b61019e6103c6565b6101a86000610420565b565b3360009081526001602052604090205460ff166102015760405162461bcd60e51b815260206004820152601060248201526f1b9bdd081a5b881dda1a5d195b1a5cdd60821b60448201526064015b60405180910390fd5b836001600160a01b03167fcaf938de11c367272220bfd1d2baa99ca46665e7bc4d85f00adb51b90fe1fa9f84848460405161023e93929190610589565b60405180910390a2600080856001600160a01b03168585856040516102649291906105bf565b60006040518083038185875af1925050503d80600081146102a1576040519150601f19603f3d011682016040523d82523d6000602084013e6102a6565b606091505b50915091508181906102cb5760405162461bcd60e51b81526004016101f891906105cf565b50505050505050565b3360009081526001602052604090205460ff166103265760405162461bcd60e51b815260206004820152601060248201526f1b9bdd081a5b881dda1a5d195b1a5cdd60821b60448201526064016101f8565b6001600160a01b03166000908152600160208190526040909120805460ff19169091179055565b6103556103c6565b6001600160a01b0381166103ba5760405162461bcd60e51b815260206004820152602660248201527f4f776e61626c653a206e6577206f776e657220697320746865207a65726f206160448201526564647265737360d01b60648201526084016101f8565b6103c381610420565b50565b6000546001600160a01b031633146101a85760405162461bcd60e51b815260206004820181905260248201527f4f776e61626c653a2063616c6c6572206973206e6f7420746865206f776e657260448201526064016101f8565b600080546001600160a01b038381166001600160a01b0319831681178455604051919092169283917f8be0079c531659141344cd1fd0a4f28419497f9722a3daafe3b4186f6b6457e09190a35050565b60008060006060848603121561048557600080fd5b833567ffffffffffffffff81111561049c57600080fd5b840161016081870312156104af57600080fd5b95602085013595506040909401359392505050565b80356001600160a01b03811681146104db57600080fd5b919050565b6000602082840312156104f257600080fd5b6104fb826104c4565b9392505050565b6000806000806060858703121561051857600080fd5b610521856104c4565b935060208501359250604085013567ffffffffffffffff8082111561054557600080fd5b818701915087601f83011261055957600080fd5b81358181111561056857600080fd5b88602082850101111561057a57600080fd5b95989497505060200194505050565b83815260406020820152816040820152818360608301376000818301606090810191909152601f909201601f1916010192915050565b8183823760009101908152919050565b600060208083528351808285015260005b818110156105fc578581018301518582016040015282016105e0565b506000604082860101526040601f19601f830116850101925050509291505056fea264697066735822122087f30bff41090f8cda87a77ab3e061a07a4e8f84298a118a73b208e6b35bca7f64736f6c63430008130033",
        "nonce": "0x1b",
        "accessList": []
      },
      "additionalContracts": [],
      "isFixedGasLimit": false
    },
    {
      "hash": "0x039a7616540ee5fb4df10eb7fefab0cad5e14a701e92df64ed350732a0f3a51a",
      "transactionType": "CALL",
      "contractName": "AABasic",
      "contractAddress": "0x39Fa0171672765Abf9A645912dd31f76bD58f00A",
      "function": "addToWhitelist(address)",
      "arguments": [
        "0xeA5963C83b6E38d766EcF506f39A82E723Adc709"
      ],
      "transaction": {
        "type": "0x02",
        "from": "0xea5963c83b6e38d766ecf506f39a82e723adc709",
        "to": "0x39fa0171672765abf9a645912dd31f76bd58f00a",
        "gas": "0x8ac2",
        "value": "0x0",
        "data": "0xe43252d7000000000000000000000000ea5963c83b6e38d766ecf506f39a82e723adc709",
        "nonce": "0x1c",
        "accessList": []
      },
      "additionalContracts": [],
      "isFixedGasLimit": false
    },
    {
      "hash": "0x651740de160fadd129fa79668fdf72aae359a668bdb760296423a9a8db2665a0",
      "transactionType": "CALL",
      "contractName": "AABasic",
      "contractAddress": "0x39Fa0171672765Abf9A645912dd31f76bD58f00A",
      "function": "addToWhitelist(address)",
      "arguments": [
        "0xD470055c6189B921c4d44b3d277Ad868F79C0F75"
      ],
      "transaction": {
        "type": "0x02",
        "from": "0xea5963c83b6e38d766ecf506f39a82e723adc709",
        "to": "0x39fa0171672765abf9a645912dd31f76bd58f00a",
        "gas": "0xf935",
        "value": "0x0",
        "data": "0xe43252d7000000000000000000000000d470055c6189b921c4d44b3d277ad868f79c0f75",
        "nonce": "0x1d",
        "accessList": []
      },
      "additionalContracts": [],
      "isFixedGasLimit": false
    },
    {
      "hash": "0xf819b72988f10bae48bf4b218d70acd13d04d56d676ae755cee9461834822941",
      "transactionType": "CALL",
      "contractName": "AABasic",
      "contractAddress": "0x39Fa0171672765Abf9A645912dd31f76bD58f00A",
      "function": "addToWhitelist(address)",
      "arguments": [
        "0x5FF137D4b0FDCD49DcA30c7CF57E578a026d2789"
      ],
      "transaction": {
        "type": "0x02",
        "from": "0xea5963c83b6e38d766ecf506f39a82e723adc709",
        "to": "0x39fa0171672765abf9a645912dd31f76bd58f00a",
        "gas": "0xf935",
        "value": "0x0",
        "data": "0xe43252d70000000000000000000000005ff137d4b0fdcd49dca30c7cf57e578a026d2789",
        "nonce": "0x1e",
        "accessList": []
      },
      "additionalContracts": [],
      "isFixedGasLimit": false
    }
  ],
  "receipts": [
    {
      "transactionHash": "0xe7d6d076834432948d56b7233919d54193dff5a2e7511a486d0a0a216da3409e",
      "transactionIndex": "0x54",
      "blockHash": "0x776f6e1155c11c9f921bb73eb27c192da7a8a302a35e5c3b810f2d5a02196b9b",
      "blockNumber": "0x2b472c8",
      "from": "0xeA5963C83b6E38d766EcF506f39A82E723Adc709",
      "to": null,
      "cumulativeGasUsed": "0xec4218",
      "gasUsed": "0x6e01f",
      "contractAddress": "0x39Fa0171672765Abf9A645912dd31f76bD58f00A",
      "logs": [
        {
          "address": "0x39Fa0171672765Abf9A645912dd31f76bD58f00A",
          "topics": [
            "0x8be0079c531659141344cd1fd0a4f28419497f9722a3daafe3b4186f6b6457e0",
            "0x0000000000000000000000000000000000000000000000000000000000000000",
            "0x000000000000000000000000ea5963c83b6e38d766ecf506f39a82e723adc709"
          ],
          "data": "0x",
          "blockHash": "0x776f6e1155c11c9f921bb73eb27c192da7a8a302a35e5c3b810f2d5a02196b9b",
          "blockNumber": "0x2b472c8",
          "transactionHash": "0xe7d6d076834432948d56b7233919d54193dff5a2e7511a486d0a0a216da3409e",
          "transactionIndex": "0x54",
          "logIndex": "0x165",
          "removed": false
        },
        {
          "address": "0x0000000000000000000000000000000000001010",
          "topics": [
            "0x4dfe1bbbcf077ddc3e01291eea2d5c70c2b422b415d95645b9adcfd678cb1d63",
            "0x0000000000000000000000000000000000000000000000000000000000001010",
            "0x000000000000000000000000ea5963c83b6e38d766ecf506f39a82e723adc709",
            "0x000000000000000000000000127685d6dd6683085da4b6a041efcef1681e5c9c"
          ],
          "data": "0x000000000000000000000000000000000000000000000000002b0b11eb816e1c0000000000000000000000000000000000000000000000002a8f5945ac8e07b7000000000000000000000000000000000000000000000a101472b0aaf85c63c70000000000000000000000000000000000000000000000002a644e33c10c999b000000000000000000000000000000000000000000000a10149dbbbce3ddd1e3",
          "blockHash": "0x776f6e1155c11c9f921bb73eb27c192da7a8a302a35e5c3b810f2d5a02196b9b",
          "blockNumber": "0x2b472c8",
          "transactionHash": "0xe7d6d076834432948d56b7233919d54193dff5a2e7511a486d0a0a216da3409e",
          "transactionIndex": "0x54",
          "logIndex": "0x166",
          "removed": false
        }
      ],
      "status": "0x1",
      "logsBloom": "0x00000000000000000000000000000000000000000000000000800000000000040000000000000000000000000000000000008000000000000000000000000000000000000000000000000000000000800001000000000000000100000000000000000000020000000000000000000800000000000000000080000000000000400000000080000000000000000000000040000000000000000000000000000000200000000000000000000000000000000000000000000000000000000000004000000000000000000001000000000080080400000000000000100000000020000000000000000000000000000040000000000000000004000000000000100020",
      "type": "0x2",
      "effectiveGasPrice": "0x170cdc1e00"
    },
    {
      "transactionHash": "0x039a7616540ee5fb4df10eb7fefab0cad5e14a701e92df64ed350732a0f3a51a",
      "transactionIndex": "0x55",
      "blockHash": "0x776f6e1155c11c9f921bb73eb27c192da7a8a302a35e5c3b810f2d5a02196b9b",
      "blockNumber": "0x2b472c8",
      "from": "0xeA5963C83b6E38d766EcF506f39A82E723Adc709",
      "to": "0x39Fa0171672765Abf9A645912dd31f76bD58f00A",
      "cumulativeGasUsed": "0xeca0f9",
      "gasUsed": "0x5ee1",
      "contractAddress": null,
      "logs": [
        {
          "address": "0x0000000000000000000000000000000000001010",
          "topics": [
            "0x4dfe1bbbcf077ddc3e01291eea2d5c70c2b422b415d95645b9adcfd678cb1d63",
            "0x0000000000000000000000000000000000000000000000000000000000001010",
            "0x000000000000000000000000ea5963c83b6e38d766ecf506f39a82e723adc709",
            "0x000000000000000000000000127685d6dd6683085da4b6a041efcef1681e5c9c"
          ],
          "data": "0x000000000000000000000000000000000000000000000000000251faf6f52de400000000000000000000000000000000000000000000000029f0de11cfa665b7000000000000000000000000000000000000000000000a10149dbbbce3ddd1e300000000000000000000000000000000000000000000000029ee8c16d8b137d3000000000000000000000000000000000000000000000a1014a00db7dad2ffc7",
          "blockHash": "0x776f6e1155c11c9f921bb73eb27c192da7a8a302a35e5c3b810f2d5a02196b9b",
          "blockNumber": "0x2b472c8",
          "transactionHash": "0x039a7616540ee5fb4df10eb7fefab0cad5e14a701e92df64ed350732a0f3a51a",
          "transactionIndex": "0x55",
          "logIndex": "0x167",
          "removed": false
        }
      ],
      "status": "0x1",
      "logsBloom": "0x00000000000000000000000000000000000000000000000000000000000000000000000000000000000000000000000000008000000000000000000000000000000000000000000000000000000000800000000000000000000100000000000000000000000000000000000000000000000000000000000080000000000000000000000080000000000000000000000040000000000000000000000000000000200000000000000000000000000000000000000000000000000000000000004000000000000000000001000000000080080000000000000000100000000000000000000000000000000000000000000000000000000004000000000000100020",
      "type": "0x2",
      "effectiveGasPrice": "0x170cdc1e00"
    },
    {
      "transactionHash": "0x651740de160fadd129fa79668fdf72aae359a668bdb760296423a9a8db2665a0",
      "transactionIndex": "0x56",
      "blockHash": "0x776f6e1155c11c9f921bb73eb27c192da7a8a302a35e5c3b810f2d5a02196b9b",
      "blockNumber": "0x2b472c8",
      "from": "0xeA5963C83b6E38d766EcF506f39A82E723Adc709",
      "to": "0x39Fa0171672765Abf9A645912dd31f76bD58f00A",
      "cumulativeGasUsed": "0xed5566",
      "gasUsed": "0xb46d",
      "contractAddress": null,
      "logs": [
        {
          "address": "0x0000000000000000000000000000000000001010",
          "topics": [
            "0x4dfe1bbbcf077ddc3e01291eea2d5c70c2b422b415d95645b9adcfd678cb1d63",
            "0x0000000000000000000000000000000000000000000000000000000000001010",
            "0x000000000000000000000000ea5963c83b6e38d766ecf506f39a82e723adc709",
            "0x000000000000000000000000127685d6dd6683085da4b6a041efcef1681e5c9c"
          ],
          "data": "0x00000000000000000000000000000000000000000000000000046989d2b2009400000000000000000000000000000000000000000000000029e85316af2c07b7000000000000000000000000000000000000000000000a1014a00db7dad2ffc700000000000000000000000000000000000000000000000029e3e98cdc7a0723000000000000000000000000000000000000000000000a1014a47741ad85005b",
          "blockHash": "0x776f6e1155c11c9f921bb73eb27c192da7a8a302a35e5c3b810f2d5a02196b9b",
          "blockNumber": "0x2b472c8",
          "transactionHash": "0x651740de160fadd129fa79668fdf72aae359a668bdb760296423a9a8db2665a0",
          "transactionIndex": "0x56",
          "logIndex": "0x168",
          "removed": false
        }
      ],
      "status": "0x1",
      "logsBloom": "0x00000000000000000000000000000000000000000000000000000000000000000000000000000000000000000000000000008000000000000000000000000000000000000000000000000000000000800000000000000000000100000000000000000000000000000000000000000000000000000000000080000000000000000000000080000000000000000000000040000000000000000000000000000000200000000000000000000000000000000000000000000000000000000000004000000000000000000001000000000080080000000000000000100000000000000000000000000000000000000000000000000000000004000000000000100020",
      "type": "0x2",
      "effectiveGasPrice": "0x170cdc1e00"
    },
    {
      "transactionHash": "0xf819b72988f10bae48bf4b218d70acd13d04d56d676ae755cee9461834822941",
      "transactionIndex": "0x57",
      "blockHash": "0x776f6e1155c11c9f921bb73eb27c192da7a8a302a35e5c3b810f2d5a02196b9b",
      "blockNumber": "0x2b472c8",
      "from": "0xeA5963C83b6E38d766EcF506f39A82E723Adc709",
      "to": "0x39Fa0171672765Abf9A645912dd31f76bD58f00A",
      "cumulativeGasUsed": "0xee09d3",
      "gasUsed": "0xb46d",
      "contractAddress": null,
      "logs": [
        {
          "address": "0x0000000000000000000000000000000000001010",
          "topics": [
            "0x4dfe1bbbcf077ddc3e01291eea2d5c70c2b422b415d95645b9adcfd678cb1d63",
            "0x0000000000000000000000000000000000000000000000000000000000001010",
            "0x000000000000000000000000ea5963c83b6e38d766ecf506f39a82e723adc709",
            "0x000000000000000000000000127685d6dd6683085da4b6a041efcef1681e5c9c"
          ],
          "data": "0x00000000000000000000000000000000000000000000000000046989d2b2009400000000000000000000000000000000000000000000000029d8143b705b41b7000000000000000000000000000000000000000000000a1014a47741ad85005b00000000000000000000000000000000000000000000000029d3aab19da94123000000000000000000000000000000000000000000000a1014a8e0cb803700ef",
          "blockHash": "0x776f6e1155c11c9f921bb73eb27c192da7a8a302a35e5c3b810f2d5a02196b9b",
          "blockNumber": "0x2b472c8",
          "transactionHash": "0xf819b72988f10bae48bf4b218d70acd13d04d56d676ae755cee9461834822941",
          "transactionIndex": "0x57",
          "logIndex": "0x169",
          "removed": false
        }
      ],
      "status": "0x1",
      "logsBloom": "0x00000000000000000000000000000000000000000000000000000000000000000000000000000000000000000000000000008000000000000000000000000000000000000000000000000000000000800000000000000000000100000000000000000000000000000000000000000000000000000000000080000000000000000000000080000000000000000000000040000000000000000000000000000000200000000000000000000000000000000000000000000000000000000000004000000000000000000001000000000080080000000000000000100000000000000000000000000000000000000000000000000000000004000000000000100020",
      "type": "0x2",
      "effectiveGasPrice": "0x170cdc1e00"
    }
  ],
  "libraries": [],
  "pending": [],
  "returns": {},
  "timestamp": 1690024578,
  "chain": 137,
  "multi": false,
  "commit": "9680d29"
}