{
  "transactions": [
    {
      "hash": "0xf6a368b9fcc220da8a9ba0f7bb1e275cb411aded4ac1be2684538e7a812b422e",
      "transactionType": "CREATE",
      "contractName": "AABasic",
      "contractAddress": "0x73796f49C1759bCf020d10981ACd79afA9a2f6f9",
      "function": null,
      "arguments": null,
      "transaction": {
        "type": "0x02",
        "from": "0xea5963c83b6e38d766ecf506f39a82e723adc709",
        "gas": "0x83fd4",
        "value": "0x0",
        "data": "0x608060405234801561001057600080fd5b5061001a3361003c565b336000908152600160208190526040909120805460ff1916909117905561008c565b600080546001600160a01b038381166001600160a01b0319831681178455604051919092169283917f8be0079c531659141344cd1fd0a4f28419497f9722a3daafe3b4186f6b6457e09190a35050565b6105b28061009b6000396000f3fe6080604052600436106100595760003560e01c8063715018a6146100655780638da5cb5b1461007c5780639b19251a146100a9578063b61d27f6146100e9578063e43252d714610109578063f2fde38b1461012957600080fd5b3661006057005b600080fd5b34801561007157600080fd5b5061007a610149565b005b34801561008857600080fd5b506000546040516001600160a01b0390911681526020015b60405180910390f35b3480156100b557600080fd5b506100d96100c436600461043f565b60016020526000908152604090205460ff1681565b60405190151581526020016100a0565b3480156100f557600080fd5b5061007a610104366004610461565b61015d565b34801561011557600080fd5b5061007a61012436600461043f565b610287565b34801561013557600080fd5b5061007a61014436600461043f565b610300565b610151610379565b61015b60006103d3565b565b3360009081526001602052604090205460ff166101b45760405162461bcd60e51b815260206004820152601060248201526f1b9bdd081a5b881dda1a5d195b1a5cdd60821b60448201526064015b60405180910390fd5b836001600160a01b03167fcaf938de11c367272220bfd1d2baa99ca46665e7bc4d85f00adb51b90fe1fa9f8484846040516101f1939291906104e8565b60405180910390a2600080856001600160a01b031685858560405161021792919061051e565b60006040518083038185875af1925050503d8060008114610254576040519150601f19603f3d011682016040523d82523d6000602084013e610259565b606091505b509150915081819061027e5760405162461bcd60e51b81526004016101ab919061052e565b50505050505050565b3360009081526001602052604090205460ff166102d95760405162461bcd60e51b815260206004820152601060248201526f1b9bdd081a5b881dda1a5d195b1a5cdd60821b60448201526064016101ab565b6001600160a01b03166000908152600160208190526040909120805460ff19169091179055565b610308610379565b6001600160a01b03811661036d5760405162461bcd60e51b815260206004820152602660248201527f4f776e61626c653a206e6577206f776e657220697320746865207a65726f206160448201526564647265737360d01b60648201526084016101ab565b610376816103d3565b50565b6000546001600160a01b0316331461015b5760405162461bcd60e51b815260206004820181905260248201527f4f776e61626c653a2063616c6c6572206973206e6f7420746865206f776e657260448201526064016101ab565b600080546001600160a01b038381166001600160a01b0319831681178455604051919092169283917f8be0079c531659141344cd1fd0a4f28419497f9722a3daafe3b4186f6b6457e09190a35050565b80356001600160a01b038116811461043a57600080fd5b919050565b60006020828403121561045157600080fd5b61045a82610423565b9392505050565b6000806000806060858703121561047757600080fd5b61048085610423565b935060208501359250604085013567ffffffffffffffff808211156104a457600080fd5b818701915087601f8301126104b857600080fd5b8135818111156104c757600080fd5b8860208285010111156104d957600080fd5b95989497505060200194505050565b83815260406020820152816040820152818360608301376000818301606090810191909152601f909201601f1916010192915050565b8183823760009101908152919050565b600060208083528351808285015260005b8181101561055b5785810183015185820160400152820161053f565b506000604082860101526040601f19601f830116850101925050509291505056fea26469706673582212203d9ac82db2f581163904d82b40b45e48a8ee6ab5a283ffdea5aafdc781611b4164736f6c63430008130033",
        "nonce": "0x11",
        "accessList": []
      },
      "additionalContracts": [],
      "isFixedGasLimit": false
    },
    {
      "hash": "0x7cd64417892b1a69ac4eab39bf6109cd36924d9a02dd6d43011b538ce17e6802",
      "transactionType": "CALL",
      "contractName": "AABasic",
      "contractAddress": "0x73796f49C1759bCf020d10981ACd79afA9a2f6f9",
      "function": "addToWhitelist(address)",
      "arguments": [
        "0xeA5963C83b6E38d766EcF506f39A82E723Adc709"
      ],
      "transaction": {
        "type": "0x02",
        "from": "0xea5963c83b6e38d766ecf506f39a82e723adc709",
        "to": "0x73796f49c1759bcf020d10981acd79afa9a2f6f9",
        "gas": "0x832b",
        "value": "0x0",
        "data": "0xe43252d7000000000000000000000000ea5963c83b6e38d766ecf506f39a82e723adc709",
        "nonce": "0x12",
        "accessList": []
      },
      "additionalContracts": [],
      "isFixedGasLimit": false
    },
    {
      "hash": "0x61d114f74914500cfab52612541c49480243fd88efaa93d1b5c75268eb245c12",
      "transactionType": "CALL",
      "contractName": "AABasic",
      "contractAddress": "0x73796f49C1759bCf020d10981ACd79afA9a2f6f9",
      "function": "addToWhitelist(address)",
      "arguments": [
        "0xD470055c6189B921c4d44b3d277Ad868F79C0F75"
      ],
      "transaction": {
        "type": "0x02",
        "from": "0xea5963c83b6e38d766ecf506f39a82e723adc709",
        "to": "0x73796f49c1759bcf020d10981acd79afa9a2f6f9",
        "gas": "0x107ff",
        "value": "0x0",
        "data": "0xe43252d7000000000000000000000000d470055c6189b921c4d44b3d277ad868f79c0f75",
        "nonce": "0x13",
        "accessList": []
      },
      "additionalContracts": [],
      "isFixedGasLimit": false
    }
  ],
  "receipts": [
    {
      "transactionHash": "0xf6a368b9fcc220da8a9ba0f7bb1e275cb411aded4ac1be2684538e7a812b422e",
      "transactionIndex": "0x1e",
      "blockHash": "0x74dab4cebb4f22c1849db2d8e942fb7231e3d21d4739bd855c2e7217e096f1ec",
      "blockNumber": "0x2b46a13",
      "from": "0xeA5963C83b6E38d766EcF506f39A82E723Adc709",
      "to": null,
      "cumulativeGasUsed": "0x5cd4fa",
      "gasUsed": "0x6587c",
      "contractAddress": "0x73796f49C1759bCf020d10981ACd79afA9a2f6f9",
      "logs": [
        {
          "address": "0x73796f49C1759bCf020d10981ACd79afA9a2f6f9",
          "topics": [
            "0x8be0079c531659141344cd1fd0a4f28419497f9722a3daafe3b4186f6b6457e0",
            "0x0000000000000000000000000000000000000000000000000000000000000000",
            "0x000000000000000000000000ea5963c83b6e38d766ecf506f39a82e723adc709"
          ],
          "data": "0x",
          "blockHash": "0x74dab4cebb4f22c1849db2d8e942fb7231e3d21d4739bd855c2e7217e096f1ec",
          "blockNumber": "0x2b46a13",
          "transactionHash": "0xf6a368b9fcc220da8a9ba0f7bb1e275cb411aded4ac1be2684538e7a812b422e",
          "transactionIndex": "0x1e",
          "logIndex": "0xa6",
          "removed": false
        },
        {
          "address": "0x0000000000000000000000000000000000001010",
          "topics": [
            "0x4dfe1bbbcf077ddc3e01291eea2d5c70c2b422b415d95645b9adcfd678cb1d63",
            "0x0000000000000000000000000000000000000000000000000000000000001010",
            "0x000000000000000000000000ea5963c83b6e38d766ecf506f39a82e723adc709",
            "0x0000000000000000000000008cb120478e9503760656c1fcac9c1539158bdb55"
          ],
          "data": "0x000000000000000000000000000000000000000000000000002fc8c0a77cd8240000000000000000000000000000000000000000000000002becfac37c6c720f0000000000000000000000000000000000000000000005bc6c5d86b6d40d4eae0000000000000000000000000000000000000000000000002bbd3202d4ef99eb0000000000000000000000000000000000000000000005bc6c8d4f777b8a26d2",
          "blockHash": "0x74dab4cebb4f22c1849db2d8e942fb7231e3d21d4739bd855c2e7217e096f1ec",
          "blockNumber": "0x2b46a13",
          "transactionHash": "0xf6a368b9fcc220da8a9ba0f7bb1e275cb411aded4ac1be2684538e7a812b422e",
          "transactionIndex": "0x1e",
          "logIndex": "0xa7",
          "removed": false
        }
      ],
      "status": "0x1",
      "logsBloom": "0x00000000000000000000000000000000000010000000000000800000000000000000000000000000000000000000000000008000000000000000020000000000000000000000000000000000000000800001000000000000000100000000020000000000020000000000000000000800000000000000000080000000000000400000000080000000000000000000000040000000000000000000000000000000200000000000000000000000000000000000000000000000000000000000004100000000000000000001000000000080000000000000000000100000000020000000080000000000000000000000000000000000000000000000001000100000",
      "type": "0x2",
      "effectiveGasPrice": "0x19d81d9600"
    },
    {
      "transactionHash": "0x7cd64417892b1a69ac4eab39bf6109cd36924d9a02dd6d43011b538ce17e6802",
      "transactionIndex": "0x1f",
      "blockHash": "0x74dab4cebb4f22c1849db2d8e942fb7231e3d21d4739bd855c2e7217e096f1ec",
      "blockNumber": "0x2b46a13",
      "from": "0xeA5963C83b6E38d766EcF506f39A82E723Adc709",
      "to": "0x73796f49C1759bCf020d10981ACd79afA9a2f6f9",
      "cumulativeGasUsed": "0x5d33f1",
      "gasUsed": "0x5ef7",
      "contractAddress": null,
      "logs": [
        {
          "address": "0x0000000000000000000000000000000000001010",
          "topics": [
            "0x4dfe1bbbcf077ddc3e01291eea2d5c70c2b422b415d95645b9adcfd678cb1d63",
            "0x0000000000000000000000000000000000000000000000000000000000001010",
            "0x000000000000000000000000ea5963c83b6e38d766ecf506f39a82e723adc709",
            "0x0000000000000000000000008cb120478e9503760656c1fcac9c1539158bdb55"
          ],
          "data": "0x0000000000000000000000000000000000000000000000000002cb1b984733710000000000000000000000000000000000000000000000002b48fb431e87ca0f0000000000000000000000000000000000000000000005bc6c8d4f777b8a26d20000000000000000000000000000000000000000000000002b4630278640969e0000000000000000000000000000000000000000000005bc6c901a9313d15a43",
          "blockHash": "0x74dab4cebb4f22c1849db2d8e942fb7231e3d21d4739bd855c2e7217e096f1ec",
          "blockNumber": "0x2b46a13",
          "transactionHash": "0x7cd64417892b1a69ac4eab39bf6109cd36924d9a02dd6d43011b538ce17e6802",
          "transactionIndex": "0x1f",
          "logIndex": "0xa8",
          "removed": false
        }
      ],
      "status": "0x1",
      "logsBloom": "0x00000000000000000000000000000000000000000000000000000000000000000000000000000000000000000000000000008000000000000000000000000000000000000000000000000000000000800000000000000000000100000000020000000000000000000000000000000000000000000000000080000000000000000000000080000000000000000000000040000000000000000000000000000000200000000000000000000000000000000000000000000000000000000000004100000000000000000001000000000080000000000000000000100000000000000000080000000000000000000000000000000000000000000000000000100000",
      "type": "0x2",
      "effectiveGasPrice": "0x19d81d9600"
    },
    {
      "transactionHash": "0x61d114f74914500cfab52612541c49480243fd88efaa93d1b5c75268eb245c12",
      "transactionIndex": "0x20",
      "blockHash": "0x74dab4cebb4f22c1849db2d8e942fb7231e3d21d4739bd855c2e7217e096f1ec",
      "blockNumber": "0x2b46a13",
      "from": "0xeA5963C83b6E38d766EcF506f39A82E723Adc709",
      "to": "0x73796f49C1759bCf020d10981ACd79afA9a2f6f9",
      "cumulativeGasUsed": "0x5de874",
      "gasUsed": "0xb483",
      "contractAddress": null,
      "logs": [
        {
          "address": "0x0000000000000000000000000000000000001010",
          "topics": [
            "0x4dfe1bbbcf077ddc3e01291eea2d5c70c2b422b415d95645b9adcfd678cb1d63",
            "0x0000000000000000000000000000000000000000000000000000000000001010",
            "0x000000000000000000000000ea5963c83b6e38d766ecf506f39a82e723adc709",
            "0x0000000000000000000000008cb120478e9503760656c1fcac9c1539158bdb55"
          ],
          "data": "0x00000000000000000000000000000000000000000000000000054f4bc9b774050000000000000000000000000000000000000000000000002b3f64f8bce8100f0000000000000000000000000000000000000000000005bc6c901a9313d15a430000000000000000000000000000000000000000000000002b3a15acf3309c0a0000000000000000000000000000000000000000000005bc6c9569dedd88ce48",
          "blockHash": "0x74dab4cebb4f22c1849db2d8e942fb7231e3d21d4739bd855c2e7217e096f1ec",
          "blockNumber": "0x2b46a13",
          "transactionHash": "0x61d114f74914500cfab52612541c49480243fd88efaa93d1b5c75268eb245c12",
          "transactionIndex": "0x20",
          "logIndex": "0xa9",
          "removed": false
        }
      ],
      "status": "0x1",
      "logsBloom": "0x00000000000000000000000000000000000000000000000000000000000000000000000000000000000000000000000000008000000000000000000000000000000000000000000000000000000000800000000000000000000100000000020000000000000000000000000000000000000000000000000080000000000000000000000080000000000000000000000040000000000000000000000000000000200000000000000000000000000000000000000000000000000000000000004100000000000000000001000000000080000000000000000000100000000000000000080000000000000000000000000000000000000000000000000000100000",
      "type": "0x2",
      "effectiveGasPrice": "0x19d81d9600"
    }
  ],
  "libraries": [],
  "pending": [],
  "returns": {},
  "timestamp": 1690019787,
  "chain": 137,
  "multi": false,
  "commit": "9680d29"
}